S01700004763634170706C69636174696F6E312E737265635B
S11300000C942A000C943C000C943C000C943C008E
S11300100C943C000C943C000C943C000C943C006C
S11300200C943C000C943C000C943C000C943C005C
S11300300C943C000C943C000C943C000C943C004C
S11300400C943C000C943C000C943C000C945C001C
S11300500C943C0011241FBECFE5D4E0DEBFCDBF1D
S113006020E0A0E6B0E001C01D92A236B207E1F79D
S11300700E9453000C9404010C94000012BE13BEA1
S113008083B7886083BF83B7806183BF83B782608F
S113009083BF8FEF87BB88E088BB83E68CBF89B7BB
S11300A0826089BF0895F8948FEF84BB8FE785BB86
S11300B00E943E007894FFCF1F920F920FB60F92CA
S11300C011242F933F934F935F936F937F938F9359
S11300D09F93AF93BF93EF93FF93809160009091B0
S11300E061000196909361008093600060916000CC
S11300F07091610080E090E00E949E0020E030E07A
S113010040E05FE30E94DB0018163CF410926100AB
S11301101092600085B3809585BBFF91EF91BF91EC
S1130120AF919F918F917F916F915F914F913F918B
S11301302F910F900FBE0F901F901895E89409C04F
S113014097FB3EF490958095709561957F4F8F4F06
S11301509F4F9923A9F0F92F96E9BB279395F6951C
S1130160879577956795B795F111F8CFFAF4BB0F9A
S113017011F460FF1BC06F5F7F4F8F4F9F4F16C0FE
S1130180882311F096E911C0772321F09EE8872F88
S1130190762F05C0662371F096E8862F70E060E044
S11301A02AF09A95660F771F881FDAF7880F9695BD
S11301B0879597F908950E94E00008F48FEF089559
S11301C0990F0008550FAA0BE0E8FEEF1616170664
S11301D0E807F907C0F012161306E407F50798F0CC
S11301E0621B730B840B950B39F40A2661F0232BE5
S11301F0242B252B21F408950A2609F4A140A69561
S10F02008FEF811D811D0895F894FFCF3D
S9030000FC
